{
  "_format": "hh-sol-artifact-1",
  "contractName": "Whitelist",
  "sourceName": "contracts/Whitelist.sol",
  "abi": [
    {
      "inputs": [
        {
          "internalType": "string",
          "name": "name",
          "type": "string"
        },
        {
          "internalType": "string",
          "name": "symbol",
          "type": "string"
        },
        {
          "internalType": "uint256",
          "name": "initialSupply",
          "type": "uint256"
        },
        {
          "internalType": "address[]",
          "name": "initialWhitelistAddress",
          "type": "address[]"
        }
      ],
      "stateMutability": "nonpayable",
      "type": "constructor"
    },
    {
      "inputs": [
        {
          "internalType": "address",
          "name": "spender",
          "type": "address"
        },
        {
          "internalType": "uint256",
          "name": "allowance",
          "type": "uint256"
        },
        {
          "internalType": "uint256",
          "name": "needed",
          "type": "uint256"
        }
      ],
      "name": "ERC20InsufficientAllowance",
      "type": "error"
    },
    {
      "inputs": [
        {
          "internalType": "address",
          "name": "sender",
          "type": "address"
        },
        {
          "internalType": "uint256",
          "name": "balance",
          "type": "uint256"
        },
        {
          "internalType": "uint256",
          "name": "needed",
          "type": "uint256"
        }
      ],
      "name": "ERC20InsufficientBalance",
      "type": "error"
    },
    {
      "inputs": [
        {
          "internalType": "address",
          "name": "approver",
          "type": "address"
        }
      ],
      "name": "ERC20InvalidApprover",
      "type": "error"
    },
    {
      "inputs": [
        {
          "internalType": "address",
          "name": "receiver",
          "type": "address"
        }
      ],
      "name": "ERC20InvalidReceiver",
      "type": "error"
    },
    {
      "inputs": [
        {
          "internalType": "address",
          "name": "sender",
          "type": "address"
        }
      ],
      "name": "ERC20InvalidSender",
      "type": "error"
    },
    {
      "inputs": [
        {
          "internalType": "address",
          "name": "spender",
          "type": "address"
        }
      ],
      "name": "ERC20InvalidSpender",
      "type": "error"
    },
    {
      "inputs": [
        {
          "internalType": "address",
          "name": "owner",
          "type": "address"
        }
      ],
      "name": "OwnableInvalidOwner",
      "type": "error"
    },
    {
      "inputs": [
        {
          "internalType": "address",
          "name": "account",
          "type": "address"
        }
      ],
      "name": "OwnableUnauthorizedAccount",
      "type": "error"
    },
    {
      "anonymous": false,
      "inputs": [
        {
          "indexed": true,
          "internalType": "address",
          "name": "owner",
          "type": "address"
        },
        {
          "indexed": true,
          "internalType": "address",
          "name": "spender",
          "type": "address"
        },
        {
          "indexed": false,
          "internalType": "uint256",
          "name": "value",
          "type": "uint256"
        }
      ],
      "name": "Approval",
      "type": "event"
    },
    {
      "anonymous": false,
      "inputs": [
        {
          "indexed": false,
          "internalType": "address",
          "name": "",
          "type": "address"
        }
      ],
      "name": "BlacklistAddress",
      "type": "event"
    },
    {
      "anonymous": false,
      "inputs": [
        {
          "indexed": true,
          "internalType": "address",
          "name": "previousOwner",
          "type": "address"
        },
        {
          "indexed": true,
          "internalType": "address",
          "name": "newOwner",
          "type": "address"
        }
      ],
      "name": "OwnershipTransferred",
      "type": "event"
    },
    {
      "anonymous": false,
      "inputs": [
        {
          "indexed": true,
          "internalType": "address",
          "name": "from",
          "type": "address"
        },
        {
          "indexed": true,
          "internalType": "address",
          "name": "to",
          "type": "address"
        },
        {
          "indexed": false,
          "internalType": "uint256",
          "name": "value",
          "type": "uint256"
        }
      ],
      "name": "Transfer",
      "type": "event"
    },
    {
      "anonymous": false,
      "inputs": [
        {
          "indexed": false,
          "internalType": "address",
          "name": "",
          "type": "address"
        }
      ],
      "name": "WhitelistAddress",
      "type": "event"
    },
    {
      "inputs": [
        {
          "internalType": "address[]",
          "name": "_addressArray",
          "type": "address[]"
        }
      ],
      "name": "addAccounts",
      "outputs": [],
      "stateMutability": "nonpayable",
      "type": "function"
    },
    {
      "inputs": [
        {
          "internalType": "address",
          "name": "owner",
          "type": "address"
        },
        {
          "internalType": "address",
          "name": "spender",
          "type": "address"
        }
      ],
      "name": "allowance",
      "outputs": [
        {
          "internalType": "uint256",
          "name": "",
          "type": "uint256"
        }
      ],
      "stateMutability": "view",
      "type": "function"
    },
    {
      "inputs": [
        {
          "internalType": "address",
          "name": "spender",
          "type": "address"
        },
        {
          "internalType": "uint256",
          "name": "amount",
          "type": "uint256"
        }
      ],
      "name": "approve",
      "outputs": [
        {
          "internalType": "bool",
          "name": "",
          "type": "bool"
        }
      ],
      "stateMutability": "nonpayable",
      "type": "function"
    },
    {
      "inputs": [
        {
          "internalType": "address",
          "name": "account",
          "type": "address"
        }
      ],
      "name": "balanceOf",
      "outputs": [
        {
          "internalType": "uint256",
          "name": "",
          "type": "uint256"
        }
      ],
      "stateMutability": "view",
      "type": "function"
    },
    {
      "inputs": [
        {
          "internalType": "address",
          "name": "_toBlacklist",
          "type": "address"
        }
      ],
      "name": "blacklistAddress",
      "outputs": [],
      "stateMutability": "nonpayable",
      "type": "function"
    },
    {
      "inputs": [],
      "name": "decimals",
      "outputs": [
        {
          "internalType": "uint8",
          "name": "",
          "type": "uint8"
        }
      ],
      "stateMutability": "view",
      "type": "function"
    },
    {
      "inputs": [
        {
          "internalType": "address",
          "name": "",
          "type": "address"
        },
        {
          "internalType": "address",
          "name": "",
          "type": "address"
        }
      ],
      "name": "hasInteractedWith",
      "outputs": [
        {
          "internalType": "bool",
          "name": "",
          "type": "bool"
        }
      ],
      "stateMutability": "view",
      "type": "function"
    },
    {
      "inputs": [
        {
          "internalType": "address",
          "name": "",
          "type": "address"
        }
      ],
      "name": "isBlacklisted",
      "outputs": [
        {
          "internalType": "bool",
          "name": "",
          "type": "bool"
        }
      ],
      "stateMutability": "view",
      "type": "function"
    },
    {
      "inputs": [
        {
          "internalType": "address",
          "name": "_address",
          "type": "address"
        }
      ],
      "name": "isBlacklistedAddress",
      "outputs": [
        {
          "internalType": "bool",
          "name": "",
          "type": "bool"
        }
      ],
      "stateMutability": "view",
      "type": "function"
    },
    {
      "inputs": [
        {
          "internalType": "address",
          "name": "_to",
          "type": "address"
        },
        {
          "internalType": "uint256",
          "name": "_amount",
          "type": "uint256"
        }
      ],
      "name": "mint",
      "outputs": [],
      "stateMutability": "nonpayable",
      "type": "function"
    },
    {
      "inputs": [],
      "name": "name",
      "outputs": [
        {
          "internalType": "string",
          "name": "",
          "type": "string"
        }
      ],
      "stateMutability": "view",
      "type": "function"
    },
    {
      "inputs": [],
      "name": "owner",
      "outputs": [
        {
          "internalType": "address",
          "name": "",
          "type": "address"
        }
      ],
      "stateMutability": "view",
      "type": "function"
    },
    {
      "inputs": [],
      "name": "renounceOwnership",
      "outputs": [],
      "stateMutability": "nonpayable",
      "type": "function"
    },
    {
      "inputs": [],
      "name": "symbol",
      "outputs": [
        {
          "internalType": "string",
          "name": "",
          "type": "string"
        }
      ],
      "stateMutability": "view",
      "type": "function"
    },
    {
      "inputs": [],
      "name": "totalSupply",
      "outputs": [
        {
          "internalType": "uint256",
          "name": "",
          "type": "uint256"
        }
      ],
      "stateMutability": "view",
      "type": "function"
    },
    {
      "inputs": [
        {
          "internalType": "address",
          "name": "recipient",
          "type": "address"
        },
        {
          "internalType": "uint256",
          "name": "amount",
          "type": "uint256"
        }
      ],
      "name": "transfer",
      "outputs": [
        {
          "internalType": "bool",
          "name": "",
          "type": "bool"
        }
      ],
      "stateMutability": "nonpayable",
      "type": "function"
    },
    {
      "inputs": [
        {
          "internalType": "address",
          "name": "sender",
          "type": "address"
        },
        {
          "internalType": "address",
          "name": "recipient",
          "type": "address"
        },
        {
          "internalType": "uint256",
          "name": "amount",
          "type": "uint256"
        }
      ],
      "name": "transferFrom",
      "outputs": [
        {
          "internalType": "bool",
          "name": "",
          "type": "bool"
        }
      ],
      "stateMutability": "nonpayable",
      "type": "function"
    },
    {
      "inputs": [
        {
          "internalType": "address",
          "name": "newOwner",
          "type": "address"
        }
      ],
      "name": "transferOwnership",
      "outputs": [],
      "stateMutability": "nonpayable",
      "type": "function"
    },
    {
      "inputs": [
        {
          "internalType": "address",
          "name": "_toWhitelist",
          "type": "address"
        }
      ],
      "name": "whitelistAddress",
      "outputs": [],
      "stateMutability": "nonpayable",
      "type": "function"
    }
  ],
  "bytecode": "0x60806040523480156200001157600080fd5b506040516200197c3803806200197c83398101604081905262000034916200046b565b33848460036200004583826200061b565b5060046200005482826200061b565b5050506001600160a01b0381166200008757604051631e4fbdf760e01b8152600060048201526024015b60405180910390fd5b6200009281620001d2565b506200009f338362000224565b60005b8151811015620001c757600060066000848481518110620000c757620000c7620006e7565b60200260200101516001600160a01b03166001600160a01b0316815260200190815260200160002060006101000a81548160ff02191690831515021790555060078282815181106200011d576200011d620006e7565b60209081029190910181015182546001810184556000938452919092200180546001600160a01b0319166001600160a01b0390921691909117905581517f18d42c3eec8582880bee14212bab8e637d6b4177748f784392a3d1074fadcc4c90839083908110620001915762000191620006e7565b6020026020010151604051620001b691906001600160a01b0391909116815260200190565b60405180910390a1600101620000a2565b505050505062000725565b600580546001600160a01b038381166001600160a01b0319831681179093556040519116919082907f8be0079c531659141344cd1fd0a4f28419497f9722a3daafe3b4186f6b6457e090600090a35050565b6001600160a01b038216620002505760405163ec442f0560e01b8152600060048201526024016200007e565b6200025e6000838362000262565b5050565b6001600160a01b03831662000291578060026000828254620002859190620006fd565b90915550620003059050565b6001600160a01b03831660009081526020819052604090205481811015620002e65760405163391434e360e21b81526001600160a01b038516600482015260248101829052604481018390526064016200007e565b6001600160a01b03841660009081526020819052604090209082900390555b6001600160a01b038216620003235760028054829003905562000342565b6001600160a01b03821660009081526020819052604090208054820190555b816001600160a01b0316836001600160a01b03167fddf252ad1be2c89b69c2b068fc378daa952ba7f163c4a11628f55a4df523b3ef836040516200038891815260200190565b60405180910390a3505050565b634e487b7160e01b600052604160045260246000fd5b604051601f8201601f191681016001600160401b0381118282101715620003d657620003d662000395565b604052919050565b600082601f830112620003f057600080fd5b81516001600160401b038111156200040c576200040c62000395565b602062000422601f8301601f19168201620003ab565b82815285828487010111156200043757600080fd5b60005b83811015620004575785810183015182820184015282016200043a565b506000928101909101919091529392505050565b600080600080608085870312156200048257600080fd5b84516001600160401b03808211156200049a57600080fd5b620004a888838901620003de565b9550602091508187015181811115620004c057600080fd5b620004ce89828a01620003de565b95505060408701519350606087015181811115620004eb57600080fd5b8701601f81018913620004fd57600080fd5b80518281111562000512576200051262000395565b8060051b925062000525848401620003ab565b818152928201840192848101908b8511156200054057600080fd5b928501925b848410156200057a57835192506001600160a01b0383168314620005695760008081fd5b828252928501929085019062000545565b989b979a50959850505050505050565b600181811c908216806200059f57607f821691505b602082108103620005c057634e487b7160e01b600052602260045260246000fd5b50919050565b601f82111562000616576000816000526020600020601f850160051c81016020861015620005f15750805b601f850160051c820191505b818110156200061257828155600101620005fd565b5050505b505050565b81516001600160401b0381111562000637576200063762000395565b6200064f816200064884546200058a565b84620005c6565b602080601f8311600181146200068757600084156200066e5750858301515b600019600386901b1c1916600185901b17855562000612565b600085815260208120601f198616915b82811015620006b85788860151825594840194600190910190840162000697565b5085821015620006d75787850151600019600388901b60f8161c191681555b5050505050600190811b01905550565b634e487b7160e01b600052603260045260246000fd5b808201808211156200071f57634e487b7160e01b600052601160045260246000fd5b92915050565b61124780620007356000396000f3fe608060405234801561001057600080fd5b50600436106101215760003560e01c806370a08231116100ad578063ac71abde11610071578063ac71abde14610284578063dd62ed3e14610297578063f2fde38b146102d0578063f3290d75146102e3578063fe575a87146102f657600080fd5b806370a082311461021d578063715018a6146102465780638da5cb5b1461024e57806395d89b4114610269578063a9059cbb1461027157600080fd5b806323b872dd116100f457806323b872dd146101a5578063313ce567146101b857806340c10f19146101c757806341566585146101dc5780636b7d1df9146101ef57600080fd5b806306fdde0314610126578063095ea7b3146101445780630bef0ec71461016757806318160ddd14610193575b600080fd5b61012e610319565b60405161013b9190610f39565b60405180910390f35b610157610152366004610fa4565b6103ab565b604051901515815260200161013b565b610157610175366004610fce565b6001600160a01b031660009081526006602052604090205460ff1690565b6002545b60405190815260200161013b565b6101576101b3366004610ff0565b610432565b6040516012815260200161013b565b6101da6101d5366004610fa4565b6104da565b005b6101da6101ea366004610fce565b610529565b6101576101fd36600461102c565b600860209081526000928352604080842090915290825290205460ff1681565b61019761022b366004610fce565b6001600160a01b031660009081526020819052604090205490565b6101da6106ff565b6005546040516001600160a01b03909116815260200161013b565b61012e610713565b61015761027f366004610fa4565b610722565b6101da610292366004611075565b6107a0565b6101976102a536600461102c565b6001600160a01b03918216600090815260016020908152604080832093909416825291909152205490565b6101da6102de366004610fce565b6108ca565b6101da6102f1366004610fce565b610908565b610157610304366004610fce565b60066020526000908152604090205460ff1681565b6060600380546103289061113a565b80601f01602080910402602001604051908101604052809291908181526020018280546103549061113a565b80156103a15780601f10610376576101008083540402835291602001916103a1565b820191906000526020600020905b81548152906001019060200180831161038457829003601f168201915b5050505050905090565b3360009081526006602052604081205460ff16156103e45760405162461bcd60e51b81526004016103db90611174565b60405180910390fd5b6001600160a01b03831660009081526006602052604090205460ff161561041d5760405162461bcd60e51b81526004016103db906111a3565b610428338484610b47565b5060015b92915050565b6001600160a01b03831660009081526006602052604081205460ff161561046b5760405162461bcd60e51b81526004016103db90611174565b6001600160a01b03831660009081526006602052604090205460ff16156104a45760405162461bcd60e51b81526004016103db906111a3565b6104ae8484610b54565b336104ba858285610ba8565b6104c5858585610c26565b6104cf8585610b54565b506001949350505050565b6104e2610c85565b6001600160a01b03821660009081526006602052604090205460ff161561051b5760405162461bcd60e51b81526004016103db906111a3565b6105258282610cb2565b5050565b610531610c85565b6001600160a01b03811660009081526006602052604090205460ff1661058f5760405162461bcd60e51b8152602060048201526013602482015272105b1c9958591e4815da1a5d195b1a5cdd1959606a1b60448201526064016103db565b6001600160a01b038116600081815260066020908152604091829020805460ff1916905590519182527f18d42c3eec8582880bee14212bab8e637d6b4177748f784392a3d1074fadcc4c910160405180910390a160005b600754811015610525576001600160a01b0382166000908152600860205260408120600780549192918490811061061f5761061f6111da565b60009182526020808320909101546001600160a01b0316835282019290925260400190205460ff16156106f75760006006600060078481548110610665576106656111da565b6000918252602080832091909101546001600160a01b031683528201929092526040019020805460ff1916911515919091179055600780547f18d42c3eec8582880bee14212bab8e637d6b4177748f784392a3d1074fadcc4c9190839081106106d0576106d06111da565b600091825260209182902001546040516001600160a01b0390911681520160405180910390a15b6001016105e6565b610707610c85565b6107116000610ce8565b565b6060600480546103289061113a565b3360009081526006602052604081205460ff16156107525760405162461bcd60e51b81526004016103db90611174565b6001600160a01b03831660009081526006602052604090205460ff161561078b5760405162461bcd60e51b81526004016103db906111a3565b610796338484610c26565b6104283384610b54565b6107a8610c85565b805160005b818110156108c5576000600660008584815181106107cd576107cd6111da565b60200260200101516001600160a01b03166001600160a01b0316815260200190815260200160002060006101000a81548160ff0219169083151502179055506007838281518110610820576108206111da565b60209081029190910181015182546001810184556000938452919092200180546001600160a01b0319166001600160a01b0390921691909117905582517f18d42c3eec8582880bee14212bab8e637d6b4177748f784392a3d1074fadcc4c90849083908110610891576108916111da565b60200260200101516040516108b591906001600160a01b0391909116815260200190565b60405180910390a16001016107ad565b505050565b6108d2610c85565b6001600160a01b0381166108fc57604051631e4fbdf760e01b8152600060048201526024016103db565b61090581610ce8565b50565b610910610c85565b6005546001600160a01b03166001600160a01b0316816001600160a01b0316036109755760405162461bcd60e51b815260206004820152601660248201527521b0b73737ba10313630b1b5b634b9ba1037bbb732b960511b60448201526064016103db565b6001600160a01b03811660009081526006602052604090205460ff16156109d45760405162461bcd60e51b8152602060048201526013602482015272105b1c9958591e48109b1858dadb1a5cdd1959606a1b60448201526064016103db565b6001600160a01b038116600081815260066020908152604091829020805460ff1916600117905590519182527fc4cc304116225fd64623586c7bb37eaa6dfcd2d07259c17ed9c0be0130e236e2910160405180910390a160005b600754811015610525576001600160a01b03821660009081526008602052604081206007805491929184908110610a6757610a676111da565b60009182526020808320909101546001600160a01b0316835282019290925260400190205460ff1615610b3f5760016006600060078481548110610aad57610aad6111da565b6000918252602080832091909101546001600160a01b031683528201929092526040019020805460ff1916911515919091179055600780547fc4cc304116225fd64623586c7bb37eaa6dfcd2d07259c17ed9c0be0130e236e2919083908110610b1857610b186111da565b600091825260209182902001546040516001600160a01b0390911681520160405180910390a15b600101610a2e565b6108c58383836001610d3a565b6001600160a01b0391821660008181526008602081815260408084209590961683529384528482208054600160ff199182168117909255918552858320938352929093529290922080549091169091179055565b6001600160a01b038381166000908152600160209081526040808320938616835292905220546000198114610c205781811015610c1157604051637dc7a0d960e11b81526001600160a01b038416600482015260248101829052604481018390526064016103db565b610c2084848484036000610d3a565b50505050565b6001600160a01b038316610c5057604051634b637e8f60e11b8152600060048201526024016103db565b6001600160a01b038216610c7a5760405163ec442f0560e01b8152600060048201526024016103db565b6108c5838383610e0f565b6005546001600160a01b031633146107115760405163118cdaa760e01b81523360048201526024016103db565b6001600160a01b038216610cdc5760405163ec442f0560e01b8152600060048201526024016103db565b61052560008383610e0f565b600580546001600160a01b038381166001600160a01b0319831681179093556040519116919082907f8be0079c531659141344cd1fd0a4f28419497f9722a3daafe3b4186f6b6457e090600090a35050565b6001600160a01b038416610d645760405163e602df0560e01b8152600060048201526024016103db565b6001600160a01b038316610d8e57604051634a1406b160e11b8152600060048201526024016103db565b6001600160a01b0380851660009081526001602090815260408083209387168352929052208290558015610c2057826001600160a01b0316846001600160a01b03167f8c5be1e5ebec7d5bd14f71427d1e84f3dd0314c0f7b2291e5b200ac8c7c3b92584604051610e0191815260200190565b60405180910390a350505050565b6001600160a01b038316610e3a578060026000828254610e2f91906111f0565b90915550610eac9050565b6001600160a01b03831660009081526020819052604090205481811015610e8d5760405163391434e360e21b81526001600160a01b038516600482015260248101829052604481018390526064016103db565b6001600160a01b03841660009081526020819052604090209082900390555b6001600160a01b038216610ec857600280548290039055610ee7565b6001600160a01b03821660009081526020819052604090208054820190555b816001600160a01b0316836001600160a01b03167fddf252ad1be2c89b69c2b068fc378daa952ba7f163c4a11628f55a4df523b3ef83604051610f2c91815260200190565b60405180910390a3505050565b60006020808352835180602085015260005b81811015610f6757858101830151858201604001528201610f4b565b506000604082860101526040601f19601f8301168501019250505092915050565b80356001600160a01b0381168114610f9f57600080fd5b919050565b60008060408385031215610fb757600080fd5b610fc083610f88565b946020939093013593505050565b600060208284031215610fe057600080fd5b610fe982610f88565b9392505050565b60008060006060848603121561100557600080fd5b61100e84610f88565b925061101c60208501610f88565b9150604084013590509250925092565b6000806040838503121561103f57600080fd5b61104883610f88565b915061105660208401610f88565b90509250929050565b634e487b7160e01b600052604160045260246000fd5b6000602080838503121561108857600080fd5b823567ffffffffffffffff808211156110a057600080fd5b818501915085601f8301126110b457600080fd5b8135818111156110c6576110c661105f565b8060051b604051601f19603f830116810181811085821117156110eb576110eb61105f565b60405291825284820192508381018501918883111561110957600080fd5b938501935b8285101561112e5761111f85610f88565b8452938501939285019261110e565b98975050505050505050565b600181811c9082168061114e57607f821691505b60208210810361116e57634e487b7160e01b600052602260045260246000fd5b50919050565b60208082526015908201527414d95b99195c881a5cc8189b1858dadb1a5cdd1959605a1b604082015260600190565b60208082526018908201527f526563697069656e7420697320626c61636b6c69737465640000000000000000604082015260600190565b634e487b7160e01b600052603260045260246000fd5b8082018082111561042c57634e487b7160e01b600052601160045260246000fdfea26469706673582212206c3e3ae7b03a55a1e66bd7ce36a3845c3cb82873e9f7f43690f813dbd7a9610464736f6c63430008180033",
  "linkReferences": {},
  "deployedLinkReferences": {}
}